:100000000C942A000C9447000C9447000C94470071
:100010000C9447000C9447000C9447000C94470044
:100020000C9447000C9447000C9447000C94470034
:100030000C9447000C9447000C9447000C94470024
:100040000C9447000C9447000C9447000C94470014
:100050000C94470011241FBECFE5D8E0DEBFCDBF12
:1000600010E0A0E6B0E0E8ECF1E002C005900D92EF
:10007000A436B107D9F720E0A4E6B0E001C01D9294
:10008000A936B207E1F70E946F000C94E2000C94CD
:100090000000843088F490E0FC01E05AFF4FE081DA
:1000A000F0E0DF0111976C934083FC01EC59FF4FA6
:1000B00021E0208381E0089580E0089590E0FC0134
:1000C000EC59FF4F2081213041F4FC01E05AFF4FF1
:1000D000E081F0E0608381E0089580E00895CF93AF
:1000E000DF9300D0CDB7DEB740E06FEF83E00E9432
:1000F000490041E060E080EA0E9497000E94D7003A
:10010000CE0101960E94CB008981803679F4CE0120
:1001100002960E94B700CE0101960E94CB00898111
:10012000803821F46A8183E00E945E00FFCF803F27
:10013000C0F46230C0F44230C0F482B982B18E7F24
:10014000682B62B986B790E4499FA00111248F7B88
:10015000482B46BF86B7846086BF81E080936800E5
:10016000089580E0089580E0089580E00895FC01FE
:1001700090916800913069F496B7906896BF96B7F1
:10018000946096BF06B607FEFDCF83B1808381E001
:10019000089580E00895FC0190916800913029F461
:1001A00091B1987F908381E0089580E008958091D7
:1001B0006800813029F406B607FEFDCF81E008957E
:0801C00080E00895F894FFCFE0
:0401C8003B38353259
:00000001FF
