S01600005350494472697665725F4D4355312E7372656341
S11300000C942A000C9447000C9447000C9447006D
S11300100C9447000C9447000C9447000C94470040
S11300200C9447000C9447000C9447000C94470030
S11300300C9447000C9447000C9447000C94470020
S11300400C9447000C9447000C9447000C94470010
S11300500C94470011241FBECFE5D8E0DEBFCDBF0E
S113006010E0A0E6B0E0EAEBF2E002C005900D92E9
S1130070A436B107D9F720E0A4E6B0E001C01D9290
S1130080A538B207E1F70E94AF000C945B010C9411
S113009000008032B0F56230B0F54230B0F5E82FA0
S11300A0E695E695E695F0E0E05AFF4FE081F0E052
S11300B0DF015E91982F977021E030E0092E02C095
S11300C0220F331F0A94E2F7209570E0092E02C034
S11300D0660F771F0A94E2F7352F3223632B6C9354
S11300E0308150E002C0440F551F9A95E2F7232354
S11300F0422B4083E82FF0E0EC59FF4F81E08083EE
S1130100089580E0089580E0089580E00895E82F40
S1130110F0E0EC59FF4F90819130F9F4E82FE69527
S1130120E695E695F0E0E05AFF4FE081F0E090813B
S1130130877021E030E0082E02C0220F331F0A949A
S1130140E2F770E002C0660F771F8A95E2F7209508
S11301502923622B608381E0089580E0089500E004
S113016021E040E060E083E00E94BE0060E08CE0BB
S11301700E94870081E40E945001FFCFFF920F93F9
S11301801F93CF93DF93883008F07BC0623008F070
S11301907AC0423008F079C0223008F078C00230CA
S11301A008F077C0D22F142FF62EC82F211115C0B6
S11301B040E060E08CE00E94490040E060E08DE0B7
S11301C00E94490040E061E08EE00E94490040E066
S11301D060E08FE00E94490014C040E061E08CE0E0
S11301E00E94490040E061E08DE00E94490040E047
S11301F060E08EE00E94490040E061E08FE00E94F0
S113020049002DB130E1D39FC0011124922F9F7E6C
S1130210892B8DB98DB18C7F8C2B8DB92EB18C2F00
S1130220847090E09595879595958795922F9E7FFC
S1130230892B8EB92DB18F2D90E0880F991F880FCF
S1130240991F922F9B7F892B8DB92DB1812F90E01F
S1130250880F991F880F991F880F991F922F977FD6
S1130260892B8DB98DB190E2099F800111248F7D76
S1130270082B0DB98DB180648DB981E08093840021
S113028009C080E007C080E005C080E003C080E0D2
S113029001C080E0DF91CF911F910F91FF900895ED
S11302A090918400913029F48FB9779BFECF81E03F
S10D02B0089580E00895F894FFCF4C
S10702BA3B38353262
S9030000FC
