:100000000C942A000C9447000C9447000C94470071
:100010000C9447000C9447000C9447000C94470044
:100020000C9447000C9447000C9447000C94470034
:100030000C9447000C9447000C9447000C94470024
:100040000C9447000C9447000C9447000C94470014
:100050000C94470011241FBECFE5D8E0DEBFCDBF12
:1000600010E0A0E6B0E0E8E2F7E002C005900D92F3
:10007000A038B107D9F720E0A0E8B0E001C01D9298
:10008000A438B207E1F70E9497010C9492030C94F4
:1000900000000F9300E020E043E060E875E280E0BC
:1000A00090E00E940A0260E080E20E94C3000F918B
:1000B00008950F931F93CF93DF93CDB7DEB7679764
:1000C0000FB6F894DEBF0FBECDBFCE0101960E94E1
:1000D00024038981873531F59A81923519F59B8101
:1000E000993401F59C819435E9F49D819534D1F4DE
:1000F000CE0107960E942403CE0107960E946C034E
:100100008C0180E690E00E94F502CE0147960E94A5
:10011000CE0284E690E00E94F5026F89C8010E9439
:10012000D30026C0823521F58A81853409F58B817B
:100130008134F1F48C818434D9F4CE0107960E9485
:100140002403CE0107960E946C038C0180E690E0A8
:100150000E94F502BE01695E7F4FC8010E94240122
:100160008AE690E00E94F5028F8990E00E94AF023B
:1001700067960FB6F894DEBF0FBECDBFDF91CF916B
:100180001F910F91089596EF980F963740F46430C1
:1001900040F40E949C0181E080938000089580E0FB
:1001A000089580E00895FF920F931F93CF93DF93FC
:1001B0001F92CDB7DEB79C01909180009130A1F5E0
:1001C000F62E89010E94E701CE0101960E94DB0113
:1001D0008981883059F5C801880F892F881F990BAC
:1001E00091958E70806A0E94B201CE0101960E94A4
:1001F000DB0189818831E1F4802F0E94B201CE01B8
:1002000001960E94DB0189818832A1F48F2D0E9422
:10021000B201CE0101960E94DB018981883261F42E
:100220000E94F90181E009C080E007C080E005C0BC
:1002300080E003C080E001C080E00F90DF91CF91AB
:100240001F910F91FF900895EF92FF920F931F93CC
:10025000CF93DF9300D0CDB7DEB79C0190918000A3
:10026000913009F04EC07B0189010E94E701CE0167
:1002700001960E94DB018981883009F044C0C801E1
:10028000880F892F881F990B9195282F2E702A830C
:10029000822F806A0E94B201CE0101960E94DB018A
:1002A0008981883191F5802F0E94B201CE0101969B
:1002B0000E94DB018981883251F50E94E701CE015D
:1002C00001960E94DB018981803119F58A81816A5A
:1002D0000E94B201CE0101960E94DB018981803427
:1002E000D1F4C7010E94C701CE0101960E94DB0133
:1002F0008981803511F0883581F40E94F90181E00F
:100300000DC080E00BC080E009C080E007C080E045
:1003100005C080E003C080E001C080E00F900F9036
:10032000DF91CF911F910F91FF90EF9008950E9460
:1003300049000E945900FDCF96EF980F963770F450
:10034000643070F480B981B18C7F682B61B986B755
:10035000846086BF81E080938100089580E00895E5
:1003600080E0089590918100913079F483B986B747
:10037000806886BF86B7846086BF86B78F7D86BF5C
:1003800006B607FEFDCF81E0089580E00895FC01E8
:1003900090918100913069F496B7906896BF96B7B6
:1003A000946096BF06B607FEFDCF83B1808381E0DF
:1003B000089580E00895FC0190918100913029F426
:1003C00091B1987F908381E0089580E008958091B5
:1003D0008100813061F486B7806286BF86B780680D
:1003E00086BF86B7846086BF06B607FEFDCF80E075
:1003F000089580918100813059F486B7806886BF66
:1004000086B7846086BF86B7806186BF81E0089525
:1004100080E00895FF920F931F93CF93DF9300D056
:10042000CDB7DEB7142FF22E613422E472072FE02D
:100430008207910508F07CC0483008F07BC044304A
:1004400009F47AC0453009F479C0463009F478C01F
:1004500031E03F1508F476C0043008F075C0013073
:1004600009F474C0DC01CB01880F991FAA1FBB1FC0
:10047000880F991FAA1FBB1F9C01AD01220F331FBC
:10048000441F551F220F331F441F551F60E072E1A8
:100490008AE790E00E944A03215031093A83298378
:1004A00089819A818F3F910579F070F080B58F77BF
:1004B00080BD80B5806880BD80B529813A812227C2
:1004C0003F70807F832B80BD89B189819A8189B9F2
:1004D00080B5806880BD20B530E1039FC001112444
:1004E000022F0F7C802B80BD20B58F2D90E0880FD0
:1004F000991F880F991F880F991F922F977F892B1B
:1005000080BD20B5912F9370892F90E0880F991F9F
:10051000922F997F892B80BD8AB18B7F912F947008
:10052000892B8AB91093820081E0809383000FC0E9
:1005300080E00DC080E00BC080E009C080E007C013
:1005400080E005C080E003C080E001C080E00F9043
:100550000F90DF91CF911F910F91FF9008959C0113
:10056000909183009130C1F48AB188608AB92CB926
:1005700080918200873031F48AB1222731708E7FDA
:10058000832B8AB95E9BFECF8BB180648BB98AB115
:10059000877F8AB981E0089580E00895FC019091F9
:1005A0008300913001F59AB190619AB95F9BFECFBB
:1005B0009BB190689BB92CB130E03183208380914E
:1005C0008200873059F48AB1827090E095958795C2
:1005D00040E0582F242B352B318320838AB18F7E26
:1005E0008AB981E0089580E00895AC01809183008C
:1005F000813041F58AB188608AB930E090E0FA0133
:10060000E90FF11D80818CB95E9BFECF2BB1206478
:100610002BB99F5FFA01E90FF11D20812A3021F0EB
:100620002D3011F09F3F39F42CB95E9BFECF2BB1DA
:1006300020642BB931E0332311F38AB1877F8AB963
:1006400081E0089580E00895AC01809183008130BD
:10065000F9F48AB180618AB930E020E05F9BFECF77
:100660009BB190689BB99CB1FA01E20FF11D908398
:100670009A3021F09D3021F02F5F03C031E001C09E
:1006800031E0332359F38AB18F7E8AB981E008952E
:1006900080E00895A1E21A2EAA1BBB1BFD010DC02C
:1006A000AA1FBB1FEE1FFF1FA217B307E407F50722
:1006B00020F0A21BB30BE40BF50B661F771F881FFE
:1006C000991F1A9469F760957095809590959B0194
:1006D000AC01BD01CF010895FC0188279927E8945A
:1006E00021912032E9F3293010F02E30C8F32B325B
:1006F00041F02D3239F4689404C00E948A03820FBD
:10070000911D219120532A30C0F31EF490958195BC
:100710009F4F08957AE0979F902D879F802D910D90
:0807200011240895F894FFCFA5
:100728004F4B0D000D4F4B0D0D0054686520646153
:1007380074612073746F7265642069733A200000D5
:00000001FF
