:100000000C942A000C9447000C9447000C94470071
:100010000C9447000C9447000C9447000C94470044
:100020000C9447000C9447000C9447000C94470034
:100030000C9447000C9447000C9447000C94470024
:100040000C9447000C9447000C9447000C94470014
:100050000C94470011241FBECFE5D8E0DEBFCDBF12
:1000600010E0A0E6B0E0E0EDF2E002C005900D92F5
:10007000A436B107D9F720E0A4E6B0E001C01D9294
:10008000A938B207E1F70E94AD000C9466010C9408
:1000900000008032B0F56230B0F54230B0F5E82FA4
:1000A000E695E695E695F0E0E05AFF4FE081F0E056
:1000B000DF015E91982F977021E030E0092E02C099
:1000C000220F331F0A94E2F7209570E0092E02C038
:1000D000660F771F0A94E2F7352F3223632B6C9358
:1000E000308150E002C0440F551F9A95E2F7232358
:1000F000422B4083E82FF0E0E859FF4F81E08083F6
:10010000089580E0089580E0089580E008958430A7
:1001100088F490E0FC01E05AFF4FE081F0E0DF015D
:1001200011976C934083FC01EC59FF4F21E0208331
:1001300081E0089580E0089590E0FC01EC59FF4FC4
:100140002081213041F4FC01E05AFF4FE081F0E0D2
:10015000608381E0089580E00895CF93DF931F923C
:10016000CDB7DEB740E06FEF83E00E94870000E08C
:1001700020E040E060E083E00E94C700CE010196ED
:100180000E945901698183E00E949C00FFCFFF9289
:100190000F931F93CF93DF93883008F07BC06230BA
:1001A00008F07AC0423008F079C0223008F078C0F8
:1001B000023008F077C0D22F142FF62EC82F21114D
:1001C00015C040E060E08CE00E94490040E060E043
:1001D0008DE00E94490040E061E08EE00E9449000D
:1001E00040E060E08FE00E94490014C040E061E020
:1001F0008CE00E94490040E061E08DE00E944900EF
:1002000040E060E08EE00E94490040E061E08FE065
:100210000E9449002DB130E1D39FC0011124922FDB
:100220009F7E892B8DB98DB18C7F8C2B8DB92EB192
:100230008C2F847090E09595879595958795922F52
:100240009E7F892B8EB92DB18F2D90E0880F991F3D
:10025000880F991F922F9B7F892B8DB92DB1812FEC
:1002600090E0880F991F880F991F880F991F922F70
:10027000977F892B8DB98DB190E2099F8001112460
:100280008F7D082B0DB98DB180648DB981E080938D
:10029000880009C080E007C080E005C080E003C09E
:1002A00080E001C080E0DF91CF911F910F91FF901E
:1002B0000895FC0190918800913031F4779BFECF36
:1002C0008FB1808381E0089580E00895F894FFCF96
:0402D0003B38353250
:00000001FF
