S0270000436F6E74726F6C4D43554F76657255415254436F6D6D756E69636174696F6E2E7372656309
S11300000C942A000C9447000C9447000C9447006D
S11300100C9447000C9447000C9447000C94470040
S11300200C9447000C9447000C9447000C94470030
S11300300C9447000C9447000C9447000C94470020
S11300400C9447000C9447000C9447000C94470010
S11300500C94470011241FBECFE5D8E0DEBFCDBF0E
S113006010E0A0E6B0E0E4E3F5E002C005900D92F4
S1130070AA39B107D9F722E0AAE9B0E001C01D927C
S1130080AA3BB207E1F70E9478010C9498020C9401
S113009000000F9300E020E043E060E875E280E0B8
S11300A090E00E947D0161E080E00E94330161E004
S11300B081E00E94330161E082E00E9433010F91EC
S11300C00895CF93DF9300D000D000D0CDB7DEB732
S11300D0CE0101960E94500289818335D1F49A8120
S11300E09435B9F49B819134A1F49C81923589F4BF
S11300F09D81943571F480E00E94650181E00E9445
S1130100650182E00E94530180E690E00E94220291
S11301103BC08735B9F49A819134A1F49B81993419
S113012089F49C81943571F480E00E94650181E03A
S11301300E94530182E00E94650181E790E00E94E1
S1130140220222C08335B9F49A819435A1F49B81AB
S11301509F3489F49C81903571F480E00E945301AE
S113016081E00E94650182E00E94650183E890E0DD
S11301700E94220209C0813439F48A81843521F431
S113018082E990E00E94220226960FB6F894DEBF20
S11301900FBECDBFDF91CF9108958032B0F56230AC
S11301A0B0F54230B0F5E82FE695E695E695F0E037
S11301B0EA56FF4FE081F0E0DF015E91982F9770DF
S11301C021E030E0092E02C0220F331F0A94E2F727
S11301D0209570E0092E02C0660F771F0A94E2F79B
S11301E0352F3223632B6C93308150E002C0440FCF
S11301F0551F9A95E2F72323422B4083E82FF0E022
S1130200E656FF4F81E08083089580E0089580E002
S1130210089580E00895E82FF0E0E656FF4F9081BE
S11302209130F9F4E82FE695E695E695F0E0EA5684
S1130230FF4FE081F0E09081877021E030E0082EEC
S113024002C0220F331F0A94E2F770E002C0660F67
S1130250771F8A95E2F720952923622B608381E03A
S1130260089580E00895CF93DF936230C0F4D62FD1
S1130270C82F40E061E00E94CD006D2F60958C2F67
S11302800E940B018C2F90E0FC01E654FF4FD083B9
S1130290FC01E754FE4F21E0208381E001C080E0AF
S11302A0DF91CF910895282F30E0F901E754FE4FF4
S11302B09081913041F4F901E654FF4F60810E942E
S11302C00B0181E0089580E00895282F30E0F901C2
S11302D0E754FE4F9081913049F4F901E654FF4F01
S11302E0608160950E940B0181E0089580E008958B
S11302F00E9449000E946100FDCFFF920F931F935B
S1130300CF93DF9300D0CDB7DEB7142FF22E613434
S113031022E472072FE08207910508F07CC0483080
S113032008F07BC0443009F47AC0453009F479C040
S1130330463009F478C031E03F1508F476C0043043
S113034008F075C0013009F474C0DC01CB01880FDA
S1130350991FAA1FBB1F880F991FAA1FBB1F9C01AF
S1130360AD01220F331F441F551F220F331F441F9B
S1130370551F60E072E18AE790E00E947602215006
S113038031093A83298389819A818F3F910579F0D4
S113039070F080B58F7780BD80B5806880BD80B5F2
S11303A029813A8122273F70807F832B80BD89B1C8
S11303B089819A8189B980B5806880BD20B530E192
S11303C0039FC0011124022F0F7C802B80BD20B518
S11303D08F2D90E0880F991F880F991F880F991F00
S11303E0922F977F892B80BD20B5912F9370892FF1
S11303F090E0880F991F922F997F892B80BD8AB135
S11304008B7F912F9470892B8AB91093B80281E065
S11304108093B9020FC080E00DC080E00BC080E083
S113042009C080E007C080E005C080E003C080E030
S113043001C080E00F900F90DF91CF911F910F9139
S1130440FF900895AC018091B902813039F58AB1E9
S113045088608AB930E090E0FA01E90FF11D8081EB
S11304608CB95E9BFECF2BB120642BB99F5FFA0140
S1130470E90FF11D20812A3029F02D3029F09F3F0A
S113048031F404C031E003C031E001C031E0332372
S113049019F38AB1877F8AB981E0089580E00895CD
S11304A0AC018091B9028130F9F48AB180618AB9D2
S11304B030E020E05F9BFECF9BB190689BB99CB17C
S11304C09A3041F09D3041F0FA01E20FF11D908322
S11304D02F5F03C031E001C031E0332359F38AB107
S11304E08F7E8AB981E0089580E00895A1E21A2EF2
S11304F0AA1BBB1BFD010DC0AA1FBB1FEE1FFF1FC4
S1130500A217B307E407F50720F0A21BB30BE40B13
S1130510F50B661F771F881F991F1A9469F760955A
S11305207095809590959B01AC01BD01CF01089514
S1070530F894FFCF69
S1130534477265656E204C4544206973206F6E0ACA
S11305440059656C6C6F77204C4544206973206FA7
S11305546E0A00526564204C4544206973206F6E12
S10D05640A004F4B0A003B38353201
S9030000FC
