:100000000C9437000C9454000C9454000C9454003D
:100010000C9454000C9454000C9454000C94540010
:100020000C9454000C9454000C9454000C94540000
:100030000C9454000C9454000C9454000C945400F0
:100040000C9454000C9454000C9454000C945400E0
:100050000C9454001C033C031E03200324032603BA
:1000600028032C032E0330033403360338031124F2
:100070001FBECFE5D8E0DEBFCDBF10E0A0E6B0E008
:10008000E2EDFFE002C005900D92AC39B107D9F75F
:1000900024E0ACE9B0E001C01D92A03CB207E1F75A
:1000A0000E94E5050C94E7070C940000843030F5BD
:1000B000823031F1623030F5483030F527B130E42C
:1000C000839FC0011124922F9F73892B87B927B179
:1000D00030E2639FC0011124922F9F7D892B87B945
:1000E00060939C0086B1887F4F5F482B46B986B1EC
:1000F000806886B981E080939D00089580E008952E
:1001000080E0089580E0089580E0089590919D003A
:10011000913079F597B1907E892B87B986B180644B
:1001200086B9349BFECF80919C0081110BC024B115
:1001300085B1837090E0982F8827822BFB019183F3
:1001400080830FC024B1229526952695237085B112
:1001500090E0880F991F880F991F822BFB019183D4
:10016000808386B18F7E86B986B18F7B86B981E028
:10017000089580E0089560E084E00E94080581E031
:100180000E9444038BE00E944A0261E087E00E94E3
:100190004F010E94A90508950F931F93CF93DF93FA
:1001A0001F92CDB7DEB7BE016F5F7F4F87E00E9421
:1001B0008D018981813019F50E94680560E080E039
:1001C0000E94720586E690E00E94960561E080E05C
:1001D0000E94720583E690E00E947D0303E610E032
:1001E000F80180810E948C0584E690E00E947D03E6
:1001F000F80181810E948C050E9468054AC060E078
:1002000080E00E94720586E790E00E9496058EE9E4
:1002100090E00E94B20580919E004AE060E670E0A6
:1002200090E00E94AA0780919E008A3040F480915D
:1002300060000E948C0580E20E948C050AC000E6E6
:1002400010E0F80180810E948C05F80181810E94F4
:100250008C0561E080E00E9472058CE690E00E94CF
:10026000960503E610E0F80180810E948C05F801F4
:1002700081810E948C05C8010E948C0790919E008C
:10028000891720F48BE00E945C0203C08BE00E947F
:100290006A020F90DF91CF911F910F9108950F93F4
:1002A0001F93CF93DF931F92CDB7DEB7623070F507
:1002B000062F182F462F60E00E947802BE016F5F64
:1002C0007F4F812F0E94DE028981811102C00023AD
:1002D00021F0813041F4013031F4E12FF0E0E256B9
:1002E000FE4F108206C0E12FF0E0E256FE4F83E0A1
:1002F0008083812F90E0FC01E156FF4F0083FC01D9
:10030000E356FD4F21E0208381E001C080E00F90A3
:10031000DF91CF911F910F910895EF92FF920F936C
:100320001F93CF93DF931F92CDB7DEB7082F10E056
:10033000F801E356FD4F9081913009F0A2C07B0196
:10034000BE016F5F7F4F0E94DE02F801E256FE4F52
:100350008081813001F138F0823009F448C0833067
:1003600009F471C086C08981813031F4F801E15609
:10037000FF4F9081992349F081117BC0F801E1562C
:10038000FF4F8081813009F074C081E0F801E256AE
:10039000FE4F80836EC08981813031F4F801E156CF
:1003A000FF4F9081992341F081110CC0F801E15673
:1003B000FF4F9081913031F483E0F801E256FE4F17
:1003C000808357C0813031F4F801E156FF4F9081AE
:1003D000913041F081114DC0F801E156FF4F80810D
:1003E000811147C0F801E256FE4F108242C0898158
:1003F000813031F4F801E156FF4F9081992341F0AB
:1004000081110CC0F801E156FF4F9081913031F419
:1004100083E0F801E256FE4F80832BC0813031F437
:10042000F801E156FF4F9081913041F0811121C0D8
:10043000F801E156FF4F808181111BC0F801E2569F
:10044000FE4F108216C08981813031F4F801E156E7
:10045000FF4F9081913041F081110BC0F801E156BE
:10046000FF4F8081811105C082E0F801E256FE4F06
:100470008083F801E256FE4F8081F701808381E09E
:1004800001C080E00F90DF91CF911F910F91FF90FD
:10049000EF900895CF93C82F40E061E00E9478026A
:1004A00060E08C2F0E94B602EC2FF0E0E456FC4F87
:1004B00081E08083CF910895E82FF0E0E456FC4F6F
:1004C0009081913029F461E00E94B60281E00895A4
:1004D00080E00895E82FF0E0E456FC4F90819130E1
:1004E00029F460E00E94B60281E0089580E008955A
:1004F0008032B0F56230B0F54230B0F5E82FE695C5
:10050000E695E695F0E0EC57FF4FE081F0E0DF0183
:100510005E91982F977021E030E0092E02C0220FE3
:10052000331F0A94E2F7209570E0092E02C0660F8F
:10053000771F0A94E2F7352F3223632B6C933081B7
:1005400050E002C0440F551F9A95E2F72323422B37
:100550004083E82FF0E0E556FB4F81E0808308956B
:1005600080E0089580E0089580E00895E82FF0E0AD
:10057000E556FB4F90819130F9F4E82FE695E6952A
:10058000E695F0E0EC57FF4FE081F0E09081877056
:1005900021E030E0082E02C0220F331F0A94E2F758
:1005A00070E002C0660F771F8A95E2F72095292335
:1005B000622B608381E0089580E00895E82FF0E0E9
:1005C000E556FB4F9081913019F5E82FE695E695B9
:1005D000E695F0E0EC57FF4FE081F0E03297908134
:1005E000877021E030E0A901082E02C0440F551F9A
:1005F0000A94E2F7292F30E024233523A90102C011
:10060000559547958A95E2F7FB01408381E008956F
:1006100080E0089570E061507109FB01EE0FFF1F4B
:10062000E60FF71FE80FF11D3197ED30F10510F5DA
:10063000E65DFF4F0C94860781E3089583E30895F8
:100640008130E1F484E3089585E3089586E3089515
:100650008130B1F487E3089588E3089589E308952C
:10066000813081F48AE2089580E3089583E2089559
:1006700084E4089580E2089582E3089581E4089572
:1006800082E4089583E408951F93CF93DF9382302B
:1006900068F080E02EC0EC2FF0E0E857FF4F41E01B
:1006A00060E080810E947802CF5F02C0D82FC0E056
:1006B0004C2F50E024E030E02D1B31094217530746
:1006C00050F3C0E00FC0EC2FF0E0E457FF4F108173
:1006D00040E061E0812F0E94780261E0812F0E945A
:1006E000B602CF5FC43078F3D093BB0481E080932F
:1006F000BC04DF91CF911F9108958F929F92BF927A
:10070000CF92DF92EF92FF920F931F93CF93DF93DD
:100710001F92CDB7DEB72091BC04213009F449C047
:1007200080E054C0EC2CF12CF701E457FF4F60E05F
:1007300080810E94B602D12C1EC00D2D10E0F80160
:10074000E857FF4FBE016F5F7F4F80810E94DE023E
:100750008981882351F00EC0BE016F5F7F4FF80181
:10076000E857FF4F80810E94DE0289818823A1F330
:10077000BB24B394D3942D2D30E04091BB0484E08E
:1007800090E0841B91092817390710F4BB20A9F2C7
:10079000F701E457FF4F61E080810E94B602C394E5
:1007A00001C0C12C83E08C1540F0BB2009F4BACF06
:1007B00004C04C01D12CC12CB12CBB2091F36C2D69
:1007C0008D2D0E940A03F401808381E00F90DF9158
:1007D000CF911F910F91FF90EF90DF90CF90BF903E
:1007E0009F908F9008950F931F93CF93DF9300D026
:1007F00000D0CDB7DEB719821A821B821C820CC0D2
:1008000049815A816B817C814F5F5F4F6F4F7F4F72
:1008100049835A836B837C83AC01440F551F440F7B
:10082000551F60E070E009811A812B813C8104171B
:1008300015072607370720F30F900F900F900F90A2
:10084000DF91CF911F910F9108951F93CF93DF9365
:10085000C82F60E088E00E94B60260E089E00E9454
:10086000B6028091BD048830E1F40DC06C2F617038
:100870006195C695ED2FF0E0EC56FF4F80810E9408
:10088000B602DF5F01C0D0E08091BD04D81770F3DD
:1008900061E08AE00E94B60260E08AE00E94B6024F
:1008A0003EC08430E1F51C2F12951F70D0E00CC0C3
:1008B000612F617061951695ED2FF0E0E057FF4FC5
:1008C00080810E94B602DF5F8091BD04D81780F35B
:1008D00061E08AE00E94B60260E08AE00E94B6020F
:1008E000CF70D0E00CC06C2F61706195C695ED2F74
:1008F000F0E0E057FF4F80810E94B602DF5F8091F9
:10090000BD04D81780F361E08AE00E94B60260E07F
:100910008AE00E94B60288EC90E00E94F303DF9127
:10092000CF911F9108950F931F93CF93DF93C82FFB
:1009300061E088E00E94B60260E089E00E94B602B1
:100940008091BD048830F9F40DC06C2F6170619501
:10095000C695F801EC56FF4F80810E94B6020F5FEA
:100960001F4F02C000E010E08091BD0490E0081726
:10097000190758F361E08AE00E94B60260E08AE05D
:100980000E94B60240C08430F1F5DC2FD295DF70B2
:1009900000E010E00CC06D2F61706195D695F801F4
:1009A000E057FF4F80810E94B6020F5F1F4F80917A
:1009B000BD0490E00817190770F361E08AE00E9417
:1009C000B60260E08AE00E94B602CF7000E010E05C
:1009D0000CC06C2F61706195C695F801E057FF4F10
:1009E00080810E94B6020F5F1F4F8091BD0490E08E
:1009F0000817190770F361E08AE00E94B60260E010
:100A00008AE00E94B602DF91CF911F910F91089565
:100A10001F93CF93DF93843019F0883009F051C0D1
:100A2000623008F050C0162FC82F8093BD0440E0FC
:100A300061E088E00E94780240E061E089E00E9485
:100A4000780240E061E08AE00E947802C43069F0F8
:100A5000D0E022C0ED2FF0E0E057FF4F40E061E032
:100A600080810E947802DF5F01C0D0E0DC1790F344
:100A700083E30E94250482E30E94250488E20E9409
:100A800025040FC0ED2FF0E0EC56FF4F40E061E091
:100A900080810E947802DF5FDC17A0F388E30E9468
:100AA0002504111104C08CE00E94250403C08EE0CF
:100AB0000E94250481E00E94250481E08093BE0409
:100AC00003C080E001C080E0DF91CF911F910895C5
:100AD0008091BE04813021F40E94250481E00895B4
:100AE00080E00895611109C09091BE04913029F40D
:100AF00080580E94250481E00895613049F4909166
:100B0000BE04913039F480540E94250481E0089598
:100B100080E0089580E008959091BE04913021F422
:100B20000E94930481E0089580E00895CF93DF93BD
:100B3000EC018091BE04813029F080E007C00E9462
:100B40009304219688818111FACF81E0DF91CF91C2
:100B5000089547E060E081E00E94560081E08093C4
:100B6000BF0408950F931F93CF93DF9300D0CDB7A9
:100B7000DEB79C019091BF049130F9F48901BE0168
:100B80006F5F7F4F80E00E94860069817A8180E0FC
:100B900090E00E948B0620E030E44CE950E40E9493
:100BA000190720E030E040E251E40E94EA050E948B
:100BB0005C06F801608381E001C080E00F900F9037
:100BC000DF91CF911F910F9108950E94BB000E9469
:100BD000CC00FDCF0E94FE050C94DF060E94D806D3
:100BE00058F00E94D10640F029F45F3F29F00C94A0
:100BF000C80651110C9413070C94CE060E94F006FF
:100C000068F39923B1F3552391F3951B550BBB273B
:100C1000AA2762177307840738F09F5F5F4F220F80
:100C2000331F441FAA1FA9F335D00E2E3AF0E0E877
:100C300032D091505040E695001CCAF72BD0FE2FC1
:100C400029D0660F771F881FBB1F26173707480755
:100C5000AB07B0E809F0BB0B802DBF01FF2793580D
:100C60005F4F3AF09E3F510578F00C94C8060C9403
:100C700013075F3FE4F3983ED4F386957795679525
:100C8000B795F7959F5FC9F7880F911D9695879542
:100C900097F90895E1E0660F771F881FBB1F621761
:100CA00073078407BA0720F0621B730B840BBA0B1F
:100CB000EE1F88F7E09508950E94F80688F09F5788
:100CC00098F0B92F9927B751B0F0E1F0660F771F70
:100CD000881F991F1AF0BA95C9F714C0B13091F066
:100CE0000E941207B1E008950C941207672F782F25
:100CF0008827B85F39F0B93FCCF38695779567952B
:100D0000B395D9F73EF490958095709561957F4F96
:100D10008F4F9F4F0895E89409C097FB3EF490953C
:100D20008095709561957F4F8F4F9F4F9923A9F0C4
:100D3000F92F96E9BB279395F69587957795679553
:100D4000B795F111F8CFFAF4BB0F11F460FF1BC097
:100D50006F5F7F4F8F4F9F4F16C0882311F096E92A
:100D600011C0772321F09EE8872F762F05C06623D8
:100D700071F096E8862F70E060E02AF09A95660F91
:100D8000771F881FDAF7880F9695879597F908954A
:100D900097F99F6780E870E060E008959FEF80EC2E
:100DA000089500240A9416161706180609060895D1
:100DB00000240A9412161306140605060895092E37
:100DC0000394000C11F4882352F0BB0F40F4BF2BA6
:100DD00011F460FF04C06F5F7F4F8F4F9F4F0895E6
:100DE00057FD9058440F551F59F05F3F71F04795DC
:100DF000880F97FB991F61F09F3F79F087950895C1
:100E0000121613061406551FF2CF4695F1DF08C0DF
:100E1000161617061806991FF1CF869571056105FC
:100E200008940895E894BB2766277727CB0197F9A4
:100E300008950E942C070C94DF060E94D10638F01A
:100E40000E94D80620F0952311F00C94C8060C944B
:100E5000CE0611240C9413070E94F00670F3959FA0
:100E6000C1F3950F50E0551F629FF001729FBB27A1
:100E7000F00DB11D639FAA27F00DB11DAA1F649F3D
:100E80006627B00DA11D661F829F2227B00DA11DF0
:100E9000621F739FB00DA11D621F839FA00D611D76
:100EA000221F749F3327A00D611D231F849F600D97
:100EB000211D822F762F6A2F11249F5750409AF0C0
:100EC000F1F088234AF0EE0FFF1FBB1F661F771F4C
:100ED000881F91505040A9F79E3F510580F00C9417
:100EE000C8060C9413075F3FE4F3983ED4F386954D
:100EF00077956795B795F795E7959F5FC1F7FE2BB7
:100F0000880F911D9695879597F90895EE0FFF1F0D
:100F10000590F491E02D0994FC0188279927E89425
:100F200021912032E9F3293010F02E30C8F32B3212
:100F300041F02D3239F4689404C00E94B507820F45
:100F4000911D219120532A30C0F31EF49095819574
:100F50009F4F0895BB274A3031F4992322F4BDE214
:100F6000909581959F4F0C94BE077AE0979F902DA6
:100F7000879F802D910D11240895BB27FB015527D4
:100F8000AA27880F991FAA1FA41710F0A41B8395E6
:100F90005051B9F7A05DAA3308F0A95DA19300975D
:100FA00079F7B111B1931192CB010C94D707DC0101
:100FB000FC01672F71917723E1F7329704C07C9190
:100FC0006D9370836291AE17BF07C8F30895F894CC
:020FD000FFCF51
:100FD20030300A39390A456E7465722052657120C3
:100FE20054656D703A0043757272656E7420546573
:100FF2006D703A003B38353218191A141C1D1E1F29
:0C1002000C0D0E0F030405060C0D0E0F64
:00000001FF
