:100000000C942A000C943C000C943C000C943C0092
:100010000C943C000C943C000C943C000C943C0070
:100020000C943C000C943C000C943C000C943C0060
:100030000C943C000C943C000C943C000C943C0050
:100040000C943C000C943C000C943C000C943C0040
:100050000C943C0011241FBECFE5D8E0DEBFCDBF1D
:1000600020E0A0E6B0E001C01D92A236B207E1F7A1
:100070000E943E000C9476010C940000CF93DF9315
:10008000CDB7DEB7CF5FD1090FB6F894DEBF0FBE94
:10009000CDBF00E020E043E060E875E280E090E062
:1000A0000E945B00CE0101960E942E01CE010196B6
:1000B0000E940001FFCFFF920F931F93CF93DF9316
:1000C00000D0CDB7DEB7142FF22E613422E47207D0
:1000D0002FE08207910508F07CC0483008F07BC013
:1000E000443009F47AC0453009F479C0463009F447
:1000F00078C031E03F1508F476C0043008F075C0D0
:10010000013009F474C0DC01CB01880F991FAA1FCC
:10011000BB1F880F991FAA1FBB1F9C01AD01220F97
:10012000331F441F551F220F331F441F551F60E00C
:1001300072E18AE790E00E945401215031093A832C
:10014000298389819A818F3F910579F070F080B57C
:100150008F7780BD80B5806880BD80B529813A8168
:1001600022273F70807F832B80BD89B189819A814E
:1001700089B980B5806880BD20B530E1039FC0019A
:100180001124022F0F7C802B80BD20B58F2D90E095
:10019000880F991F880F991F880F991F922F977F9B
:1001A000892B80BD20B5912F9370892F90E0880F07
:1001B000991F922F997F892B80BD8AB18B7F912FB8
:1001C0009470892B8AB91093600081E0809361005C
:1001D0000FC080E00DC080E00BC080E009C080E06F
:1001E00007C080E005C080E003C080E001C080E07F
:1001F0000F900F90DF91CF911F910F91FF90089575
:10020000AC0180916100813039F58AB188608AB98A
:1002100030E090E0FA01E90FF11D80818CB95E9B1E
:10022000FECF2BB120642BB99F5FFA01E90FF11DBE
:1002300020812A3029F02D3029F09F3F31F404C06D
:1002400031E003C031E001C031E0332319F38AB15A
:10025000877F8AB981E0089580E00895AC0180919C
:1002600061008130F9F48AB180618AB930E020E020
:100270005F9BFECF9BB190689BB99CB19A3041F0D7
:100280009D3041F0FA01E20FF11D90832F5F03C012
:1002900031E001C031E0332359F38AB18F7E8AB94E
:1002A00081E0089580E00895A1E21A2EAA1BBB1BED
:1002B000FD010DC0AA1FBB1FEE1FFF1FA217B30732
:1002C000E407F50720F0A21BB30BE40BF50B661F48
:1002D000771F881F991F1A9469F76095709580950C
:1002E00090959B01AC01BD01CF010895F894FFCF1B
:00000001FF
