:100000000C942A000C9447000C9447000C94470071
:100010000C9447000C9447000C9447000C94470044
:100020000C9447000C9447000C9447000C94470034
:100030000C9447000C9447000C9447000C94470024
:100040000C9447000C9447000C9447000C94470014
:100050000C94470011241FBECFE5D8E0DEBFCDBF12
:1000600010E0A0E6B0E0EEEEF6E002C005900D92E2
:10007000AC36B107D9F720E0ACE6B0E001C01D9284
:10008000A037B207E1F70E9446030C9475030C9465
:1000900000000F931F93CF93DF9391E080E007C19F
:1000A000282F30E0F901EE0FFF1FE20FF31FE05A97
:1000B000FF4F4081403208F0F6C0F901EE0FFF1FFC
:1000C000E20FF31FE05AFF4FE181E23008F0EDC08C
:1000D000542F5695569556955130E9F138F05230D7
:1000E00009F46EC0533009F4A0C0D6C0AAB347705B
:1000F00061E070E0EB01042E02C0CC0FDD1F0A941A
:10010000E2F7F0E08F0102C0000F111F4A95E2F7FD
:10011000A8015C2F50955A23452B4ABBBBB3F9016C
:10012000EE0FFF1FE20FF31FE05AFF4FA081A770F1
:100130000A2E02C0660F771F0A94E2F75281452FFC
:1001400050E002C0440F551FAA95E2F760956B235B
:10015000462B4BBBA2C0A7B3477061E070E0EB0138
:10016000042E02C0CC0FDD1F0A94E2F7F0E08F01ED
:1001700002C0000F111F4A95E2F7A8015C2F5095AD
:100180005A23452B47BBB8B3F901EE0FFF1FE20F0F
:10019000F31FE05AFF4FA081A7700A2E02C0660F1E
:1001A000771F0A94E2F75281452F50E002C0440FB6
:1001B000551FAA95E2F760956B23462B48BB6DC08F
:1001C000A4B3477061E070E0EB01042E02C0CC0FD5
:1001D000DD1F0A94E2F7F0E08F0102C0000F111F4B
:1001E0004A95E2F7A8015C2F50955A23452B44BB52
:1001F000B5B3F901EE0FFF1FE20FF31FE05AFF4FF7
:10020000A081A7700A2E02C0660F771F0A94E2F73A
:100210005281452F50E002C0440F551FAA95E2F7C6
:1002200060956B23462B45BB38C0F1B34770A1E006
:10023000B0E0ED01042E02C0CC0FDD1F0A94E2F7FE
:100240006E2F70E08B0102C0000F111F4A95E2F77C
:10025000A8015C2F50955F23452B41BBD2B3F90118
:10026000EE0FFF1FE20FF31FE05AFF4FC081C77070
:10027000BD010C2E02C0660F771F0A94E2F752816F
:10028000452F50E002C0440F551FCA95E2F7609514
:100290006D23462B42BB01C090E0F901E459FF4FAA
:1002A00041E0408303C090E001C090E08F5F843064
:1002B00018F4913009F4F4CE913011F481E001C0CA
:1002C00080E0DF91CF911F910F910895843008F065
:1002D00081C090E0FC01E459FF4F2081213009F0FA
:1002E0007BC0FC01EE0FFF1FE80FF91FE05AFF4F24
:1002F0002181213009F072C0FC01EE0FFF1F8E0F2B
:100300009F1FFC01E05AFF4F8081982F969596958C
:1003100096959130E9F030F0923081F1933009F404
:1003200043C05EC09BB3877021E030E0082E02C05E
:10033000220F331F0A94E2F770E002C0660F771FA6
:100340008A95E2F720952923622B6BBB81E0089503
:1003500098B3877021E030E0082E02C0220F331FCF
:100360000A94E2F770E002C0660F771F8A95E2F701
:1003700020952923622B68BB81E0089595B387708F
:1003800021E030E0082E02C0220F331F0A94E2F76A
:1003900070E002C0660F771F8A95E2F72095292347
:1003A000622B65BB81E0089592B3877021E030E055
:1003B000082E02C0220F331F0A94E2F770E002C039
:1003C000660F771F8A95E2F720952923622B62BB7F
:1003D00081E0089580E0089580E0089580E0089528
:1003E00080E00895843008F084C090E0FC01E45976
:1003F000FF4F2081213009F07EC0FC01EE0FFF1F6E
:10040000E80FF91FE05AFF4F2181211176C0FC014E
:10041000EE0FFF1F8E0F9F1FFC01E05AFF4F8081E0
:10042000982F9695969596959130F1F030F0923000
:1004300091F1933009F446C062C049B3877021E05E
:1004400030E0082E02C0220F331F0A94E2F750E07A
:1004500024233523A90102C0559547958A95E2F7D3
:10046000FB01408381E0089546B3877021E030E0CE
:10047000082E02C0220F331F0A94E2F750E0242313
:100480003523A90102C0559547958A95E2F7FB01EE
:10049000408381E0089543B3877021E030E0082E67
:1004A00002C0220F331F0A94E2F750E024233523C1
:1004B000A90102C0559547958A95E2F7FB01408353
:1004C00081E0089540B3877021E030E0082E02C03B
:1004D000220F331F0A94E2F750E024233523A901A9
:1004E00002C0559547958A95E2F7FB01408381E06C
:1004F000089580E0089580E0089580E0089580E008
:100500000895843008F0BAC090E0FC01E459FF4F30
:100510002081213009F0B4C0FC01EE0FFF1FE80F6D
:10052000F91FE05AFF4F2181213009F0ABC0FC01D7
:10053000EE0FFF1F8E0F9F1FFC01E05AFF4F8081BF
:10054000982F969596959695913061F138F0923066
:1005500009F44CC0933009F46DC096C029B387707C
:1005600041E050E0082E02C0440F551F0A94E2F704
:1005700030E024233523082E02C0359527950A94B0
:10058000E2F75BB3332720953095B90102C0660FBF
:10059000771F8A95E2F7CB0140954523842B8BBBCF
:1005A00081E0089526B3877041E050E0082E02C034
:1005B000440F551F0A94E2F730E024233523082E18
:1005C00002C0359527950A94E2F758B33327209552
:1005D0003095B90102C0660F771F8A95E2F7CB010B
:1005E00040954523842B88BB81E0089523B3877011
:1005F00041E050E0082E02C0440F551F0A94E2F774
:1006000030E024233523082E02C0359527950A941F
:10061000E2F755B3332720953095B90102C0660F34
:10062000771F8A95E2F7CB0140954523842B85BB44
:1006300081E0089520B3877041E050E0082E02C0A9
:10064000440F551F0A94E2F730E024233523082E87
:1006500002C0359527950A94E2F752B333272095C7
:100660003095B90102C0660F771F8A95E2F7CB017A
:1006700040954523842B82BB81E0089580E0089556
:1006800080E0089580E0089580E00895CF93DF939F
:1006900000D0CDB7DEB70E944900BE016F5F7F4F2B
:1006A00080E00E94F201BE016E5F7F4F82E00E94F7
:1006B000F2018981811105C061E081E00E9466013B
:1006C00004C060E081E00E9466018A818111E5CF6B
:1006D00083E00E948102BE016E5F7F4F82E00E9434
:0E06E000F2018A818823B9F3D8CFF894FFCFB6
:0C06EE000000010701000800010F0100DE
:00000001FF
