:100000000C942A000C9447000C9447000C94470071
:100010000C9447000C9447000C9447000C94470044
:100020000C9447000C9447000C94AC030C947F0391
:100030000C9447000C9447000C9447000C94470024
:100040000C9447000C9447000C9447000C94470014
:100050000C94470011241FBECFE5D8E0DEBFCDBF12
:1000600010E0A0E6B0E0EEEEFAE002C005900D92DE
:10007000A437B107D9F720E0A4E7B0E001C01D9292
:10008000AC37B207E1F70E9466020C9475050C9438
:1000900000000F931F93CF93DF9391E080E016C190
:1000A000282F30E0F901EE0FFF1FE20FF31FE05A97
:1000B000FF4F4081403208F003C1F901EE0FFF1FEE
:1000C000E20FF31FE05AFF4F7181723008F0FAC05F
:1000D000F901EE0FFF1FE20FF31FE05AFF4F5281AD
:1000E000523008F0F1C0542F569556955695513020
:1000F000F1F138F0523009F470C0533009F4A3C064
:10010000D8C06AB34770A1E0B0E0ED01042E02C090
:10011000CC0FDD1F0A94E2F7E72FF0E08F0102C059
:10012000000F111F4A95E2F7A8015C2F5095562346
:10013000452B4ABBDBB3F901EE0FFF1FE20FF31FA4
:10014000E05AFF4FC081C770BD010C2E02C0660F80
:10015000771F0A94E2F7428150E002C0440F551F16
:10016000CA95E2F760956D23462B4BBBA3C067B3DE
:100170004770A1E0B0E0ED01042E02C0CC0FDD1FFE
:100180000A94E2F7E72FF0E08F0102C0000F111F81
:100190004A95E2F7A8015C2F50955623452B47BBA3
:1001A000D8B3F901EE0FFF1FE20FF31FE05AFF4F24
:1001B000C081C770BD010C2E02C0660F771F0A9464
:1001C000E2F7428150E002C0440F551FCA95E2F7A2
:1001D00060956D23462B48BB6DC064B34770A1E0AA
:1001E000B0E0ED01042E02C0CC0FDD1F0A94E2F74F
:1001F000E72FF0E08F0102C0000F111F4A95E2F7D0
:10020000A8015C2F50955623452B44BBD5B3F9016B
:10021000EE0FFF1FE20FF31FE05AFF4FC081C770C0
:10022000BD010C2E02C0660F771F0A94E2F74281CF
:1002300050E002C0440F551FCA95E2F760956D2348
:10024000462B45BB37C0E1B34770A1E0B0E0ED01FC
:10025000042E02C0CC0FDD1F0A94E2F7672F70E076
:100260008B0102C0000F111F4A95E2F7A8015C2F15
:1002700050955E23452B41BBD2B3F901EE0FFF1F12
:10028000E20FF31FE05AFF4FC081C770BD010C2E73
:1002900002C0660F771F0A94E2F7428150E002C065
:1002A000440F551FCA95E2F760956D23462B42BB5C
:1002B00001C090E0F901EC58FF4F41E0408305C0D8
:1002C00090E003C090E001C090E08F5F811103C017
:1002D000913009F4E5CE913011F481E001C080E065
:1002E000DF91CF911F910F9108958111BAC090E0D5
:1002F000FC01EC58FF4F2081213009F0B4C0FC0113
:10030000EE0FFF1FE80FF91FE05AFF4F2181213048
:1003100009F0ABC0FC01EE0FFF1F8E0F9F1FFC0109
:10032000E05AFF4F8081982F96959695969591303B
:1003300061F138F0923009F44CC0933009F46DC08B
:1003400096C029B3877041E050E0082E02C0440FE8
:10035000551F0A94E2F730E024233523082E02C00B
:10036000359527950A94E2F75BB3332720953095AE
:10037000B90102C0660F771F8A95E2F7CB0140955D
:100380004523842B8BBB81E0089526B3877041E021
:1003900050E0082E02C0440F551F0A94E2F730E0E7
:1003A00024233523082E02C0359527950A94E2F7B9
:1003B00058B3332720953095B90102C0660F771FD7
:1003C0008A95E2F7CB0140954523842B88BB81E0D9
:1003D000089523B3877041E050E0082E02C0440F17
:1003E000551F0A94E2F730E024233523082E02C07B
:1003F000359527950A94E2F755B333272095309524
:10040000B90102C0660F771F8A95E2F7CB014095CC
:100410004523842B85BB81E0089520B3877041E09C
:1004200050E0082E02C0440F551F0A94E2F730E056
:1004300024233523082E02C0359527950A94E2F728
:1004400052B3332720953095B90102C0660F771F4C
:100450008A95E2F7CB0140954523842B82BB81E04E
:10046000089580E0089580E0089580E0089580E098
:1004700008958091750090917600A0917700B091D9
:10048000780084369105A105B10561F480E00E94F1
:1004900075011092750010927600109277001092FC
:1004A00078000BC00196A11DB11D8093750090933B
:1004B0007600A0937700B093780049E352E060E1C2
:1004C00077E280E090E00E94D20208950E94490005
:1004D0000E94750249E352E060E177E280E090E03B
:1004E0000E94D2020E944003FDCF80916F008230B3
:1004F00008F050C090917000943008F04DC0909179
:100500007100983008F04AC090917200923008F063
:1005100047C0882319F0813079F021C083B7877FE5
:1005200083BF83B78F7B83BF99B7809172009E7F13
:10053000892B89BF81E014C083B7877F83BF83B7CE
:10054000806483BF29B790917200892F90E0880F53
:10055000991F922F9D7F892B89BF81E001C080E088
:1005600043B7EFE6F0E0918150E1959F90011124AF
:10057000942F9F7C292B23BF4FB7938150E8959FE1
:1005800090011124942F9F77292B2FBF91E09093F6
:100590007B00089580E0089580E0089580E008954C
:1005A00080E00895CF92DF92EF92FF920F931F9316
:1005B000CF9320917B00213019F0233009F055C0F2
:1005C000C0917100CC2309F452C08A012AEF2C0F8C
:1005D000223028F10E947A0420E034E244E759E412
:1005E0000E94D9036B017C01EC2FF0E0EE0FFF1F9E
:1005F000ED59FF4F6081718180E090E00E947A04A4
:100600009B01AC0160E074E284EF9AE40E94D9039C
:100610009B01AC01C701B6010E94080504C060E05F
:1006200070E08FE793E420916F00222319F02130CE
:1006300039F00CC00E944B04609562BF81E007C096
:100640000E944B0460956CBF81E001C080E023B73D
:1006500090917100287F922B93BF10937A000093A2
:10066000790092E090937B0003C080E001C080E0BD
:10067000CF911F910F91FF90EF90DF90CF90089551
:1006800080917B00823089F58091720081112FC0AA
:1006900080916F00882319F08130A1F02AC008B63C
:1006A00000FE29C088B7816088BF83B7887F83BF79
:1006B00083E080937B00E0917900F0917A000995C6
:1006C00081E0089508B601FE18C088B7826088BF2F
:1006D00083B7887F83BF83E080937B00E0917900BC
:1006E000F0917A00099581E0089580E0089580E016
:1006F000089580E0089581E0089581E008951F92B3
:100700000F920FB60F9211242F933F934F935F9345
:100710006F937F938F939F93AF93BF93EF93FF93C9
:1007200083E080937B0083B7887F83BFE09179006B
:10073000F0917A000995FF91EF91BF91AF919F9150
:100740008F917F916F915F914F913F912F910F907A
:100750000FBE0F901F9018951F920F920FB60F9219
:1007600011242F933F934F935F936F937F938F93B6
:100770009F93AF93BF93EF93FF9383E080937B00AE
:1007800083B7887F83BFE0917900F0917A00099563
:10079000FF91EF91BF91AF919F918F917F916F9159
:1007A0005F914F913F912F910F900FBE0F901F902F
:1007B00018950E94ED030C94CE040E94C70458F0D3
:1007C0000E94C00440F029F45F3F29F00C94B70464
:1007D00051110C9402050C94BD040E94DF0468F3CF
:1007E0009923B1F3552391F3951B550BBB27AA27EA
:1007F00062177307840738F09F5F5F4F220F331F24
:10080000441FAA1FA9F335D00E2E3AF0E0E832D0EB
:1008100091505040E695001CCAF72BD0FE2F29D0EE
:10082000660F771F881FBB1F261737074807AB07C0
:10083000B0E809F0BB0B802DBF01FF2793585F4F35
:100840003AF09E3F510578F00C94B7040C940205E1
:100850005F3FE4F3983ED4F3869577956795B79517
:10086000F7959F5FC9F7880F911D9695879597F922
:100870000895E1E0660F771F881FBB1F621773079B
:100880008407BA0720F0621B730B840BBA0BEE1FB0
:1008900088F7E09508950E94E70488F09F5798F044
:1008A000B92F9927B751B0F0E1F0660F771F881F75
:1008B000991F1AF0BA95C9F714C0B13091F00E948F
:1008C0000105B1E008950C940105672F782F882762
:1008D000B85F39F0B93FCCF3869577956795B395B6
:1008E000D9F73EF490958095709561957F4F8F4F25
:1008F0009F4F0895E89409C097FB3EF4909580952A
:10090000709561957F4F8F4F9F4F9923A9F0F92FD5
:1009100096E9BB279395F695879577956795B79553
:10092000F111F8CFFAF4BB0F11F460FF1BC06F5F39
:100930007F4F8F4F9F4F16C0882311F096E911C04B
:10094000772321F09EE8872F762F05C0662371F06C
:1009500096E8862F70E060E02AF09A95660F771F80
:10096000881FDAF7880F9695879597F9089597F974
:100970009F6780E870E060E008959FEF80EC089545
:1009800000240A941616170618060906089500246E
:100990000A9412161306140605060895092E0394E8
:1009A000000C11F4882352F0BB0F40F4BF2B11F45C
:1009B00060FF04C06F5F7F4F8F4F9F4F089557FDBB
:1009C0009058440F551F59F05F3F71F04795880FBD
:1009D00097FB991F61F09F3F79F087950895121654
:1009E00013061406551FF2CF4695F1DF08C0161600
:1009F00017061806991FF1CF8695710561050894B1
:100A00000895E894BB2766277727CB0197F90895C7
:100A10000E941B050C94CE040E94C00438F00E9472
:100A2000C70420F0952311F00C94B7040C94BD0476
:100A300011240C9402050E94DF0470F3959FC1F30A
:100A4000950F50E0551F629FF001729FBB27F00D7C
:100A5000B11D639FAA27F00DB11DAA1F649F6627D1
:100A6000B00DA11D661F829F2227B00DA11D621F20
:100A7000739FB00DA11D621F839FA00D611D221FDA
:100A8000749F3327A00D611D231F849F600D211DBE
:100A9000822F762F6A2F11249F5750409AF0F1F041
:100AA00088234AF0EE0FFF1FBB1F661F771F881FAA
:100AB00091505040A9F79E3F510580F00C94B70427
:100AC0000C9402055F3FE4F3983ED4F38695779546
:100AD0006795B795F795E7959F5FC1F7FE2B880F50
:0E0AE000911D9695879597F90895F894FFCF8C
:100AEE0000010001000100080040000001000400A8
:040AFE0000050000EF
:00000001FF
