S0100000536C6176654D43552E7372656334
S11300000C942A000C9447000C9447000C9447006D
S11300100C9447000C9447000C9447000C94470040
S11300200C9447000C9447000C9447000C94470030
S11300300C9447000C9447000C9447000C94470020
S11300400C9447000C9447000C9447000C94470010
S11300500C94470011241FBECFE5D8E0DEBFCDBF0E
S113006010E0A0E6B0E0E2EAF4E002C005900D92F0
S1130070A436B107D9F720E0A4E6B0E001C01D9290
S1130080A738B207E1F70E9487000C944F020C9442
S113009000008032B0F56230B0F54230B0F5E82FA0
S11300A0E695E695E695F0E0E05AFF4FE081F0E052
S11300B0DF015E91982F977021E030E0092E02C095
S11300C0220F331F0A94E2F7209570E0092E02C034
S11300D0660F771F0A94E2F7352F3223632B6C9354
S11300E0308150E002C0440F551F9A95E2F7232354
S11300F0422B4083E82FF0E0EC59FF4F81E08083EE
S1130100089580E0089580E0089580E00895CF93F5
S1130110DF93CDB7DEB7CF5FD1090FB6F894DEBF5A
S11301200FBECDBF00E020E043E060E875E280E070
S113013090E00E94590120E040E060E083E00E94EA
S1130140AA00CE0101960E943C01CE0101960E94B4
S1130150FE01F7CFFF920F931F93CF93DF93883065
S113016008F07BC0623008F07AC0423008F079C0F1
S1130170223008F078C0023008F077C0D22F142F54
S1130180F62EC82F211115C040E060E08CE00E94DB
S1130190490040E060E08DE00E94490040E061E0F9
S11301A08EE00E94490040E060E08FE00E94490038
S11301B014C040E061E08CE00E94490040E061E04E
S11301C08DE00E94490040E060E08EE00E9449001A
S11301D040E061E08FE00E9449002DB130E1D39FFF
S11301E0C0011124922F9F7E892B8DB98DB18C7FF4
S11301F08C2B8DB92EB18C2F847090E095958795BA
S113020095958795922F9E7F892B8EB92DB18F2D31
S113021090E0880F991F880F991F922F9B7F892B3D
S11302208DB92DB1812F90E0880F991F880F991FE8
S1130230880F991F922F977F892B8DB98DB190E2EA
S1130240099F800111248F7D082B0DB98DB1806425
S11302508DB981E08093840009C080E007C080E00C
S113026005C080E003C080E001C080E0DF91CF9151
S11302701F910F91FF900895AC018091840081300B
S1130280B1F430E020E0779BFECF9FB1FA01E20F9A
S1130290F11D90839A3021F09D3021F02F5F03C02F
S11302A031E001C031E0332371F381E0089580E04F
S11302B00895FF920F931F93CF93DF9300D0CDB790
S11302C0DEB7142FF22E613422E472072FE0820786
S11302D0910508F07CC0483008F07BC0443009F434
S11302E07AC0453009F479C0463009F478C031E069
S11302F03F1508F476C0043008F075C0013009F4E5
S113030074C0DC01CB01880F991FAA1FBB1F880F83
S1130310991FAA1FBB1F9C01AD01220F331F441F4D
S1130320551F220F331F441F551F60E072E18AE7F7
S113033090E00E942D02215031093A83298389815A
S11303409A818F3F910579F070F080B58F7780BDE9
S113035080B5806880BD80B529813A8122273F70AD
S1130360807F832B80BD89B189819A8189B980B5C9
S1130370806880BD20B530E1039FC0011124022FA5
S11303800F7C802B80BD20B58F2D90E0880F991FA6
S1130390880F991F880F991F922F977F892B80BDF3
S11303A020B5912F9370892F90E0880F991F922F79
S11303B0997F892B80BD8AB18B7F912F9470892B73
S11303C08AB91093850081E0809386000FC080E095
S11303D00DC080E00BC080E009C080E007C080E071
S11303E005C080E003C080E001C080E00F900F9062
S11303F0DF91CF911F910F91FF900895AC018091EF
S11304008600813041F58AB188608AB930E090E095
S1130410FA01E90FF11D80818CB95E9BFECF2BB1EF
S113042020642BB99F5FFA01E90FF11D20812A3066
S113043021F02D3011F09F3F39F42CB95E9BFECF93
S11304402BB120642BB931E0332311F38AB1877FB8
S11304508AB981E0089580E00895A1E21A2EAA1BCA
S1130460BB1BFD010DC0AA1FBB1FEE1FFF1FA21760
S1130470B307E407F50720F0A21BB30BE40BF50B5D
S1130480661F771F881F991F1A9469F760957095E6
S1130490809590959B01AC01BD01CF010895F8941E
S10504A0FFCF88
S10704A23B38353278
S9030000FC
