:100000000C942A000C943C000C943C000C943C0092
:100010000C943C000C943C000C943C000C943C0070
:100020000C943C000C943C000C943C000C943C0060
:100030000C943C000C943C000C943C000C943C0050
:100040000C943C000C943C000C943C000C943C0040
:100050000C943C0011241FBECFE5D8E0DEBFCDBF1D
:1000600020E0A0E6B0E001C01D92A136B207E1F7A2
:100070000E943E000C94BE000C940000CF93DF93CE
:100080001F92CDB7DEB763E087E40E9467000E944D
:100090009B00CE0101960E948F0089818830B1F4C7
:1000A00080EA0E947D00CE0101960E948F00898126
:1000B000883161F481E40E947D00CE0101960E94A6
:1000C0008F008981883211F40E94AD00FFCF96EF36
:1000D000980F963770F4643070F480B981B18C7FDA
:1000E000682B61B986B7846086BF81E08093600029
:1000F000089580E0089580E0089590916000913027
:1001000061F483B986B7806886BF86B7846086BF8E
:1001100006B607FEFDCF81E0089580E00895FC015A
:1001200090916000913029F491B1987F908381E0A3
:10013000089580E0089580916000813061F486B771
:10014000806886BF86B7806286BF86B7846086BFB8
:1001500006B607FEFDCF80E00895809160008130F3
:1001600059F486B7806886BF86B7846086BF86B735
:10017000806186BF81E0089580E00895F894FFCF04
:00000001FF
